{
  "contractName": "MetaHash",
  "abi": [
    {
      "inputs": [],
      "payable": true,
      "stateMutability": "payable",
      "type": "constructor",
      "signature": "constructor"
    },
    {
      "anonymous": false,
      "inputs": [
        {
          "indexed": false,
          "name": "_deligator",
          "type": "address"
        },
        {
          "indexed": false,
          "name": "_tokenAmount",
          "type": "uint256"
        },
        {
          "indexed": false,
          "name": "_currentdate",
          "type": "uint256"
        }
      ],
      "name": "newDeligateRequest",
      "type": "event",
      "signature": "0x1273237e190978a9b9246e717962b584d675815b510510df208d15cd2f094392"
    },
    {
      "anonymous": false,
      "inputs": [
        {
          "indexed": false,
          "name": "_deligator",
          "type": "address"
        },
        {
          "indexed": false,
          "name": "_currentdate",
          "type": "uint256"
        },
        {
          "indexed": false,
          "name": "timeOwed",
          "type": "uint256"
        },
        {
          "indexed": false,
          "name": "reward",
          "type": "uint256"
        }
      ],
      "name": "unDeligateRequest",
      "type": "event",
      "signature": "0x1ef803f6697310fbb1c12c2e055a4bfd1acee6b240c61704fa87111bca380ba8"
    },
    {
      "constant": true,
      "inputs": [],
      "name": "getServerAddress",
      "outputs": [
        {
          "name": "",
          "type": "address"
        }
      ],
      "payable": false,
      "stateMutability": "view",
      "type": "function",
      "signature": "0xc7acae2e"
    },
    {
      "constant": false,
      "inputs": [
        {
          "name": "amount",
          "type": "uint256"
        },
        {
          "name": "txID",
          "type": "string"
        }
      ],
      "name": "newDeligator",
      "outputs": [
        {
          "name": "",
          "type": "bool"
        },
        {
          "name": "",
          "type": "address"
        },
        {
          "name": "",
          "type": "uint256"
        },
        {
          "name": "",
          "type": "uint256"
        },
        {
          "name": "",
          "type": "uint256"
        },
        {
          "name": "",
          "type": "bool"
        },
        {
          "name": "",
          "type": "bool"
        },
        {
          "name": "",
          "type": "uint256"
        },
        {
          "name": "",
          "type": "uint256"
        },
        {
          "name": "",
          "type": "string"
        }
      ],
      "payable": true,
      "stateMutability": "payable",
      "type": "function",
      "signature": "0xe4cd1bf4"
    },
    {
      "constant": false,
      "inputs": [
        {
          "name": "_deligator",
          "type": "address"
        }
      ],
      "name": "unDeligate",
      "outputs": [],
      "payable": true,
      "stateMutability": "payable",
      "type": "function",
      "signature": "0x22cd0d04"
    },
    {
      "constant": true,
      "inputs": [],
      "name": "lookupDeligate",
      "outputs": [
        {
          "name": "",
          "type": "bool"
        },
        {
          "name": "",
          "type": "address"
        },
        {
          "name": "",
          "type": "uint256"
        },
        {
          "name": "",
          "type": "uint256"
        },
        {
          "name": "",
          "type": "uint256"
        },
        {
          "name": "",
          "type": "bool"
        },
        {
          "name": "",
          "type": "bool"
        },
        {
          "name": "",
          "type": "uint256"
        },
        {
          "name": "",
          "type": "uint256"
        },
        {
          "name": "",
          "type": "string"
        }
      ],
      "payable": false,
      "stateMutability": "view",
      "type": "function",
      "signature": "0x35c719bf"
    },
    {
      "constant": false,
      "inputs": [
        {
          "name": "toAuth",
          "type": "address"
        }
      ],
      "name": "authorise",
      "outputs": [
        {
          "name": "",
          "type": "address"
        },
        {
          "name": "",
          "type": "string"
        },
        {
          "name": "",
          "type": "bool"
        }
      ],
      "payable": true,
      "stateMutability": "payable",
      "type": "function",
      "signature": "0x66e6c8af"
    },
    {
      "constant": false,
      "inputs": [
        {
          "name": "toReward",
          "type": "address"
        }
      ],
      "name": "rewardDeligate",
      "outputs": [
        {
          "name": "",
          "type": "address"
        },
        {
          "name": "",
          "type": "string"
        },
        {
          "name": "",
          "type": "bool"
        }
      ],
      "payable": true,
      "stateMutability": "payable",
      "type": "function",
      "signature": "0x5604f16c"
    }
  ],
  "bytecode": "0x6080604052336000806101000a81548173ffffffffffffffffffffffffffffffffffffffff021916908373ffffffffffffffffffffffffffffffffffffffff160217905550611c85806100536000396000f3fe608060405260043610610078576000357c0100000000000000000000000000000000000000000000000000000000900463ffffffff16806322cd0d041461007d57806335c719bf146100c15780635604f16c146101c857806366e6c8af146102c3578063c7acae2e146103be578063e4cd1bf414610415575b600080fd5b6100bf6004803603602081101561009357600080fd5b81019080803573ffffffffffffffffffffffffffffffffffffffff1690602001909291905050506105ca565b005b3480156100cd57600080fd5b506100d6610b15565b604051808b1515151581526020018a73ffffffffffffffffffffffffffffffffffffffff1673ffffffffffffffffffffffffffffffffffffffff168152602001898152602001888152602001878152602001861515151581526020018515151515815260200184815260200183815260200180602001828103825283818151815260200191508051906020019080838360005b83811015610184578082015181840152602081019050610169565b50505050905090810190601f1680156101b15780820380516001836020036101000a031916815260200191505b509b50505050505050505050505060405180910390f35b61020a600480360360208110156101de57600080fd5b81019080803573ffffffffffffffffffffffffffffffffffffffff169060200190929190505050610e2e565b604051808473ffffffffffffffffffffffffffffffffffffffff1673ffffffffffffffffffffffffffffffffffffffff1681526020018060200183151515158152602001828103825284818151815260200191508051906020019080838360005b8381101561028657808201518184015260208101905061026b565b50505050905090810190601f1680156102b35780820380516001836020036101000a031916815260200191505b5094505050505060405180910390f35b610305600480360360208110156102d957600080fd5b81019080803573ffffffffffffffffffffffffffffffffffffffff169060200190929190505050610e88565b604051808473ffffffffffffffffffffffffffffffffffffffff1673ffffffffffffffffffffffffffffffffffffffff1681526020018060200183151515158152602001828103825284818151815260200191508051906020019080838360005b83811015610381578082015181840152602081019050610366565b50505050905090810190601f1680156103ae5780820380516001836020036101000a031916815260200191505b5094505050505060405180910390f35b3480156103ca57600080fd5b506103d36111f1565b604051808273ffffffffffffffffffffffffffffffffffffffff1673ffffffffffffffffffffffffffffffffffffffff16815260200191505060405180910390f35b6104d86004803603604081101561042b57600080fd5b81019080803590602001909291908035906020019064010000000081111561045257600080fd5b82018360208201111561046457600080fd5b8035906020019184600183028401116401000000008311171561048657600080fd5b91908080601f016020809104026020016040519081016040528093929190818152602001838380828437600081840152601f19601f820116905080830192505050505050509192919290505050611254565b604051808b1515151581526020018a73ffffffffffffffffffffffffffffffffffffffff1673ffffffffffffffffffffffffffffffffffffffff168152602001898152602001888152602001878152602001861515151581526020018515151515815260200184815260200183815260200180602001828103825283818151815260200191508051906020019080838360005b8381101561058657808201518184015260208101905061056b565b50505050905090810190601f1680156105b35780820380516001836020036101000a031916815260200191505b509b50505050505050505050505060405180910390f35b6000809054906101000a900473ffffffffffffffffffffffffffffffffffffffff1673ffffffffffffffffffffffffffffffffffffffff163373ffffffffffffffffffffffffffffffffffffffff1614151561062557600080fd5b6000600160008373ffffffffffffffffffffffffffffffffffffffff1673ffffffffffffffffffffffffffffffffffffffff16815260200190815260200160002060000160006101000a81548160ff0219169083151502179055506000600160008373ffffffffffffffffffffffffffffffffffffffff1673ffffffffffffffffffffffffffffffffffffffff16815260200190815260200160002060030160006101000a81548173ffffffffffffffffffffffffffffffffffffffff021916908373ffffffffffffffffffffffffffffffffffffffff1602179055506000600160008373ffffffffffffffffffffffffffffffffffffffff1673ffffffffffffffffffffffffffffffffffffffff1681526020019081526020016000206005018190555042600160008373ffffffffffffffffffffffffffffffffffffffff1673ffffffffffffffffffffffffffffffffffffffff168152602001908152602001600020600101819055506000600160008373ffffffffffffffffffffffffffffffffffffffff1673ffffffffffffffffffffffffffffffffffffffff168152602001908152602001600020600201819055506000600160008373ffffffffffffffffffffffffffffffffffffffff1673ffffffffffffffffffffffffffffffffffffffff16815260200190815260200160002060060160006101000a81548160ff0219169083151502179055506000600160008373ffffffffffffffffffffffffffffffffffffffff1673ffffffffffffffffffffffffffffffffffffffff16815260200190815260200160002060060160016101000a81548160ff0219169083151502179055506000600160008373ffffffffffffffffffffffffffffffffffffffff1673ffffffffffffffffffffffffffffffffffffffff168152602001908152602001600020600701819055506000600160008373ffffffffffffffffffffffffffffffffffffffff1673ffffffffffffffffffffffffffffffffffffffff168152602001908152602001600020600801819055506020604051908101604052806000815250600160008373ffffffffffffffffffffffffffffffffffffffff1673ffffffffffffffffffffffffffffffffffffffff1681526020019081526020016000206004019080519060200190610985929190611aec565b5060008090505b600280549050811015610b11578173ffffffffffffffffffffffffffffffffffffffff166002828154811015156109bf57fe5b906000526020600020906009020160030160009054906101000a900473ffffffffffffffffffffffffffffffffffffffff1673ffffffffffffffffffffffffffffffffffffffff161415610b045760011515600282815481101515610a2057fe5b906000526020600020906009020160000160009054906101000a900460ff1615151415610b0357600281815481101515610a5657fe5b9060005260206000209060090201600080820160006101000a81549060ff0219169055600182016000905560028201600090556003820160006101000a81549073ffffffffffffffffffffffffffffffffffffffff0219169055600482016000610ac09190611b6c565b60058201600090556006820160006101000a81549060ff02191690556006820160016101000a81549060ff02191690556007820160009055600882016000905550505b5b808060010191505061098c565b5050565b600080600080600080600080600060606000809054906101000a900473ffffffffffffffffffffffffffffffffffffffff1673ffffffffffffffffffffffffffffffffffffffff163373ffffffffffffffffffffffffffffffffffffffff16141515610b8057600080fd5b60008090505b600280549050811015610e205760011515600282815481101515610ba657fe5b906000526020600020906009020160000160009054906101000a900460ff1615151415610e1357600281815481101515610bdc57fe5b906000526020600020906009020160000160009054906101000a900460ff16600282815481101515610c0a57fe5b906000526020600020906009020160030160009054906101000a900473ffffffffffffffffffffffffffffffffffffffff16600283815481101515610c4b57fe5b906000526020600020906009020160050154600284815481101515610c6c57fe5b906000526020600020906009020160010154600285815481101515610c8d57fe5b906000526020600020906009020160020154600286815481101515610cae57fe5b906000526020600020906009020160060160009054906101000a900460ff16600287815481101515610cdc57fe5b906000526020600020906009020160060160019054906101000a900460ff16600288815481101515610d0a57fe5b906000526020600020906009020160070154600289815481101515610d2b57fe5b90600052602060002090600902016008015460028a815481101515610d4c57fe5b9060005260206000209060090201600401808054600181600116156101000203166002900480601f016020809104026020016040519081016040528092919081815260200182805460018160011615610100020316600290048015610df25780601f10610dc757610100808354040283529160200191610df2565b820191906000526020600020905b815481529060010190602001808311610dd557829003601f168201915b505050505090509a509a509a509a509a509a509a509a509a509a5050610e22565b8080600101915050610b86565b505b90919293949596979899565b60006060600080606490508473ffffffffffffffffffffffffffffffffffffffff166108fc829081150290604051600060405180830381858888f19350505050158015610e7f573d6000803e3d6000fd5b50509193909250565b6000606060008060009054906101000a900473ffffffffffffffffffffffffffffffffffffffff1673ffffffffffffffffffffffffffffffffffffffff163373ffffffffffffffffffffffffffffffffffffffff16141515610ee957600080fd5b600160008573ffffffffffffffffffffffffffffffffffffffff1673ffffffffffffffffffffffffffffffffffffffff16815260200190815260200160002060030160009054906101000a900473ffffffffffffffffffffffffffffffffffffffff1673ffffffffffffffffffffffffffffffffffffffff168473ffffffffffffffffffffffffffffffffffffffff16141515610f8557600080fd5b60018060008673ffffffffffffffffffffffffffffffffffffffff1673ffffffffffffffffffffffffffffffffffffffff16815260200190815260200160002060060160016101000a81548160ff02191690831515021790555060018060008673ffffffffffffffffffffffffffffffffffffffff1673ffffffffffffffffffffffffffffffffffffffff16815260200190815260200160002060060160016101000a81548160ff0219169083151502179055156110535761104684610e2e565b505050611052846105ca565b5b600160008573ffffffffffffffffffffffffffffffffffffffff1673ffffffffffffffffffffffffffffffffffffffff16815260200190815260200160002060030160009054906101000a900473ffffffffffffffffffffffffffffffffffffffff16600160008673ffffffffffffffffffffffffffffffffffffffff1673ffffffffffffffffffffffffffffffffffffffff168152602001908152602001600020600401600160008773ffffffffffffffffffffffffffffffffffffffff1673ffffffffffffffffffffffffffffffffffffffff16815260200190815260200160002060060160019054906101000a900460ff16818054600181600116156101000203166002900480601f0160208091040260200160405190810160405280929190818152602001828054600181600116156101000203166002900480156111dd5780601f106111b2576101008083540402835291602001916111dd565b820191906000526020600020905b8154815290600101906020018083116111c057829003601f168201915b505050505091509250925092509193909250565b60008060009054906101000a900473ffffffffffffffffffffffffffffffffffffffff1673ffffffffffffffffffffffffffffffffffffffff163373ffffffffffffffffffffffffffffffffffffffff1614151561124e57600080fd5b33905090565b60008060008060008060008060006060600033905060018060008373ffffffffffffffffffffffffffffffffffffffff1673ffffffffffffffffffffffffffffffffffffffff16815260200190815260200160002060000160006101000a81548160ff02191690831515021790555033600160008373ffffffffffffffffffffffffffffffffffffffff1673ffffffffffffffffffffffffffffffffffffffff16815260200190815260200160002060030160006101000a81548173ffffffffffffffffffffffffffffffffffffffff021916908373ffffffffffffffffffffffffffffffffffffffff1602179055508c600160008373ffffffffffffffffffffffffffffffffffffffff1673ffffffffffffffffffffffffffffffffffffffff1681526020019081526020016000206005018190555042600160008373ffffffffffffffffffffffffffffffffffffffff1673ffffffffffffffffffffffffffffffffffffffff168152602001908152602001600020600101819055506000600160008373ffffffffffffffffffffffffffffffffffffffff1673ffffffffffffffffffffffffffffffffffffffff168152602001908152602001600020600201819055506000600160008373ffffffffffffffffffffffffffffffffffffffff1673ffffffffffffffffffffffffffffffffffffffff16815260200190815260200160002060060160006101000a81548160ff0219169083151502179055506000600160008373ffffffffffffffffffffffffffffffffffffffff1673ffffffffffffffffffffffffffffffffffffffff16815260200190815260200160002060060160016101000a81548160ff0219169083151502179055506000600160008373ffffffffffffffffffffffffffffffffffffffff1673ffffffffffffffffffffffffffffffffffffffff168152602001908152602001600020600701819055506000600160008373ffffffffffffffffffffffffffffffffffffffff1673ffffffffffffffffffffffffffffffffffffffff168152602001908152602001600020600801819055508b600160008373ffffffffffffffffffffffffffffffffffffffff1673ffffffffffffffffffffffffffffffffffffffff16815260200190815260200160002060040190805190602001906115b6929190611aec565b50600261014060405190810160405280600115158152602001428152602001600081526020018373ffffffffffffffffffffffffffffffffffffffff1681526020018e81526020018f81526020016000151581526020016000151581526020016000815260200160008152509080600181540180825580915050906001820390600052602060002090600902016000909192909190915060008201518160000160006101000a81548160ff021916908315150217905550602082015181600101556040820151816002015560608201518160030160006101000a81548173ffffffffffffffffffffffffffffffffffffffff021916908373ffffffffffffffffffffffffffffffffffffffff16021790555060808201518160040190805190602001906116e4929190611bb4565b5060a0820151816005015560c08201518160060160006101000a81548160ff02191690831515021790555060e08201518160060160016101000a81548160ff02191690831515021790555061010082015181600701556101208201518160080155505050600160008273ffffffffffffffffffffffffffffffffffffffff1673ffffffffffffffffffffffffffffffffffffffff16815260200190815260200160002060000160009054906101000a900460ff16600160008373ffffffffffffffffffffffffffffffffffffffff1673ffffffffffffffffffffffffffffffffffffffff16815260200190815260200160002060030160009054906101000a900473ffffffffffffffffffffffffffffffffffffffff16600160008473ffffffffffffffffffffffffffffffffffffffff1673ffffffffffffffffffffffffffffffffffffffff16815260200190815260200160002060050154600160008573ffffffffffffffffffffffffffffffffffffffff1673ffffffffffffffffffffffffffffffffffffffff16815260200190815260200160002060010154600160008673ffffffffffffffffffffffffffffffffffffffff1673ffffffffffffffffffffffffffffffffffffffff16815260200190815260200160002060020154600160008773ffffffffffffffffffffffffffffffffffffffff1673ffffffffffffffffffffffffffffffffffffffff16815260200190815260200160002060060160009054906101000a900460ff16600160008873ffffffffffffffffffffffffffffffffffffffff1673ffffffffffffffffffffffffffffffffffffffff16815260200190815260200160002060060160019054906101000a900460ff16600160008973ffffffffffffffffffffffffffffffffffffffff1673ffffffffffffffffffffffffffffffffffffffff16815260200190815260200160002060070154600160008a73ffffffffffffffffffffffffffffffffffffffff1673ffffffffffffffffffffffffffffffffffffffff16815260200190815260200160002060080154600160008b73ffffffffffffffffffffffffffffffffffffffff1673ffffffffffffffffffffffffffffffffffffffff168152602001908152602001600020600401808054600181600116156101000203166002900480601f016020809104026020016040519081016040528092919081815260200182805460018160011615610100020316600290048015611ac15780601f10611a9657610100808354040283529160200191611ac1565b820191906000526020600020905b815481529060010190602001808311611aa457829003601f168201915b505050505090509a509a509a509a509a509a509a509a509a509a50509295989b9194979a5092959850565b828054600181600116156101000203166002900490600052602060002090601f016020900481019282601f10611b2d57805160ff1916838001178555611b5b565b82800160010185558215611b5b579182015b82811115611b5a578251825591602001919060010190611b3f565b5b509050611b689190611c34565b5090565b50805460018160011615610100020316600290046000825580601f10611b925750611bb1565b601f016020900490600052602060002090810190611bb09190611c34565b5b50565b828054600181600116156101000203166002900490600052602060002090601f016020900481019282601f10611bf557805160ff1916838001178555611c23565b82800160010185558215611c23579182015b82811115611c22578251825591602001919060010190611c07565b5b509050611c309190611c34565b5090565b611c5691905b80821115611c52576000816000905550600101611c3a565b5090565b9056fea165627a7a7230582007b65a25840c177006da74670d60054971f96306464bf3c7dd14fb330721b9290029",
  "source": "pragma solidity >=0.4.22 <0.6.0;\r\n// TASK 1 : Fix release reward function to allow input of a wallet address in front end\r\n// TASK 2 : Make function to calculate reward based on a percent of the main reward awarded\r\n// TASK 3 : Make the lookup process display a HREF to directly check proof of deligation\r\n// TASK 4 : \r\n// TASK 5 : \r\n// TASK 6 : \r\n\r\n\r\ncontract MetaHash {\r\n\r\n    struct Delegated {\r\n        bool live; // is currently deligated\r\n        uint deligatedDate; // dete deligated\r\n        uint undeligatedDate; //dete undeligated\r\n        address delegate; //deligator ethaddress\r\n        string txID;\r\n        uint amount; //amount deligated\r\n        bool verifiedDeligation; // Authorised deligation\r\n        bool releasePayment; //Authorised payment\r\n        uint timeDeligated; //Amount of time deligated\r\n        uint rewardToPay; //caluclated reward to pay\r\n    }\r\n    \r\n    address payable server; //Owner of contract\r\n    \r\n    mapping(address => Delegated) deligators; //list of deligated accounts\r\n    Delegated[] delegatesArray;\r\n  \r\n    event newDeligateRequest(address _deligator, uint _tokenAmount, uint _currentdate); // Notify when new user registers\r\n    event unDeligateRequest(address _deligator, uint _currentdate, uint timeOwed, uint reward); // Notify when new user registers\r\n\r\n    constructor() public payable {\r\n        server = msg.sender;\r\n    }\r\n    \r\n    //Get server address\r\n    function getServerAddress() public view returns (address) {\r\n        require (msg.sender == server);\r\n        return msg.sender;\r\n    }\r\n    \r\n    //Add deligate\r\n    ///hell testing\r\n    function newDeligator(uint amount, string memory txID) public payable returns (bool, address, uint,uint,uint,bool,bool,uint,uint, string memory) {\r\n        //require (msg.sender != deligators[msg.sender].delegate); //not already deligated\r\n        address payable _deligator = msg.sender;\r\n        \r\n        deligators[_deligator].live = true;\r\n        deligators[_deligator].delegate = msg.sender;\r\n        deligators[_deligator].amount = amount;\r\n        deligators[_deligator].deligatedDate = now;\r\n        deligators[_deligator].undeligatedDate = 0;\r\n        deligators[_deligator].verifiedDeligation = false;\r\n        deligators[_deligator].releasePayment = false;\r\n        deligators[_deligator].timeDeligated = 0;\r\n        deligators[_deligator].rewardToPay = 0;\r\n        deligators[_deligator].txID = txID;\r\n        \r\n        delegatesArray.push(Delegated({ //create deligator object and place within array\r\n            live: true,\r\n            delegate: _deligator,\r\n            amount: amount,\r\n            deligatedDate: now,\r\n            undeligatedDate: 0,\r\n            verifiedDeligation: false,\r\n            releasePayment: false,\r\n            timeDeligated: 0,\r\n            rewardToPay: 0,\r\n            txID: txID\r\n            }));\r\n        \r\n        return (deligators[_deligator].live, \r\n                deligators[_deligator].delegate, \r\n                deligators[_deligator].amount, \r\n                deligators[_deligator].deligatedDate,\r\n                deligators[_deligator].undeligatedDate,\r\n                deligators[_deligator].verifiedDeligation,\r\n                deligators[_deligator].releasePayment,\r\n                deligators[_deligator].timeDeligated,\r\n                deligators[_deligator].rewardToPay,\r\n                deligators[_deligator].txID);\r\n                \r\n        emit newDeligateRequest(_deligator, amount, now);\r\n                \r\n    }\r\n    \r\n    //Undeligate.  Reset all data in mapping.\r\n    function unDeligate(address _deligator) public payable {\r\n        require (msg.sender == server);\r\n        \r\n        deligators[_deligator].live = false;\r\n        deligators[_deligator].delegate = 0x0000000000000000000000000000000000000000;\r\n        deligators[_deligator].amount = 0;\r\n        deligators[_deligator].deligatedDate = now;\r\n        deligators[_deligator].undeligatedDate = 0;\r\n        deligators[_deligator].verifiedDeligation = false;\r\n        deligators[_deligator].releasePayment = false;\r\n        deligators[_deligator].timeDeligated = 0;\r\n        deligators[_deligator].rewardToPay = 0;\r\n        deligators[_deligator].txID = \"\";\r\n        \r\n         for (uint d = 0; d < delegatesArray.length; d++) {\r\n            if (delegatesArray[d].delegate == _deligator) {\r\n                if (delegatesArray[d].live == true) {\r\n                    delete delegatesArray[d];\r\n                }\r\n            }\r\n        }\r\n    }\r\n    \r\n    //deligate lookup\r\n    function lookupDeligate() public view returns (bool, address, uint,uint,uint,bool,bool,uint,uint, string memory){\r\n        require (msg.sender == server);\r\n        for (uint d = 0; d < delegatesArray.length; d++) {\r\n            if (delegatesArray[d].live == true) {\r\n            \r\n            return (delegatesArray[d].live, \r\n            delegatesArray[d].delegate, \r\n            delegatesArray[d].amount,\r\n            delegatesArray[d].deligatedDate, \r\n            delegatesArray[d].undeligatedDate, \r\n            delegatesArray[d].verifiedDeligation, \r\n            delegatesArray[d].releasePayment, \r\n            delegatesArray[d].timeDeligated,\r\n            delegatesArray[d].rewardToPay,\r\n            delegatesArray[d].txID);\r\n            }\r\n        } \r\n    }\r\n\r\n//   function searchByTXID(string memory toAuthTXID) public returns (address) {\r\n //       for (uint d = 0; d < delegatesArray.length; d++) {\r\n //           if (delegatesArray[d].live == true) { // live deligate\r\n //               if (delegatesArray[d].releasePayment == false) { // not yet paid\r\n //                   string memory test =delegatesArray[d].txID;\r\n //                   if(test == toAuthTXID) {\r\n //                       address payable walletToPay =  delegatesArray[d].delegate;\r\n //                   }\r\n //               }\r\n //           }\r\n //       \r\n //       }\r\n//\r\n//   }\r\n\r\n    //Authorise the release of payment to an inputted address: subject to some safety checks within\r\n    function authorise(address payable toAuth) public payable returns (address, string memory, bool) {\r\n        require (msg.sender == server);\r\n        require (toAuth == deligators[toAuth].delegate);\r\n        \r\n        deligators[toAuth].releasePayment = true;\r\n        \r\n        if (deligators[toAuth].releasePayment = true) {\r\n            rewardDeligate(toAuth);\r\n            unDeligate(toAuth);\r\n        }\r\n        return (deligators[toAuth].delegate,\r\n                deligators[toAuth].txID,\r\n                deligators[toAuth].releasePayment);\r\n    }\r\n    \r\n    //Release the funds to an address.\r\n    function rewardDeligate(address payable toReward) public payable returns (address, string memory, bool) {\r\n        //require (msg.sender == server);\r\n        uint value = 100;\r\n        toReward.transfer(value);\r\n        \r\n    }\r\n\r\n}",
  "sourcePath": "C:/Users/Lee/Desktop/COURSE/freelance/Miner Contract/contracts/MetaHash.sol",
  "compiler": {
    "name": "solc",
    "version": "0.5.0+commit.1d4f565a.Emscripten.clang"
  },
  "schemaVersion": "3.0.2",
  "updatedAt": "2019-03-03T21:01:46.454Z",
  "devdoc": {
    "methods": {}
  },
  "userdoc": {
    "methods": {
      "newDeligator(uint256,string)": {
        "notice": "hell testing"
      }
    }
  }
}